{
  "contractName": "ProjectFactory",
  "abi": [
    {
      "inputs": [],
      "stateMutability": "nonpayable",
      "type": "constructor"
    },
    {
      "anonymous": false,
      "inputs": [
        {
          "indexed": true,
          "internalType": "address",
          "name": "owner",
          "type": "address"
        },
        {
          "indexed": true,
          "internalType": "address",
          "name": "approved",
          "type": "address"
        },
        {
          "indexed": true,
          "internalType": "uint256",
          "name": "tokenId",
          "type": "uint256"
        }
      ],
      "name": "Approval",
      "type": "event"
    },
    {
      "anonymous": false,
      "inputs": [
        {
          "indexed": true,
          "internalType": "address",
          "name": "owner",
          "type": "address"
        },
        {
          "indexed": true,
          "internalType": "address",
          "name": "operator",
          "type": "address"
        },
        {
          "indexed": false,
          "internalType": "bool",
          "name": "approved",
          "type": "bool"
        }
      ],
      "name": "ApprovalForAll",
      "type": "event"
    },
    {
      "anonymous": false,
      "inputs": [
        {
          "indexed": true,
          "internalType": "address",
          "name": "from",
          "type": "address"
        },
        {
          "indexed": true,
          "internalType": "address",
          "name": "to",
          "type": "address"
        },
        {
          "indexed": true,
          "internalType": "uint256",
          "name": "tokenId",
          "type": "uint256"
        }
      ],
      "name": "Transfer",
      "type": "event"
    },
    {
      "inputs": [
        {
          "internalType": "address",
          "name": "to",
          "type": "address"
        },
        {
          "internalType": "uint256",
          "name": "tokenId",
          "type": "uint256"
        }
      ],
      "name": "approve",
      "outputs": [],
      "stateMutability": "nonpayable",
      "type": "function"
    },
    {
      "inputs": [
        {
          "internalType": "address",
          "name": "owner",
          "type": "address"
        }
      ],
      "name": "balanceOf",
      "outputs": [
        {
          "internalType": "uint256",
          "name": "",
          "type": "uint256"
        }
      ],
      "stateMutability": "view",
      "type": "function",
      "constant": true
    },
    {
      "inputs": [
        {
          "internalType": "uint256",
          "name": "tokenId",
          "type": "uint256"
        }
      ],
      "name": "burn",
      "outputs": [],
      "stateMutability": "nonpayable",
      "type": "function"
    },
    {
      "inputs": [
        {
          "internalType": "uint256",
          "name": "",
          "type": "uint256"
        }
      ],
      "name": "deployedProjects",
      "outputs": [
        {
          "internalType": "address",
          "name": "",
          "type": "address"
        }
      ],
      "stateMutability": "view",
      "type": "function",
      "constant": true
    },
    {
      "inputs": [
        {
          "internalType": "uint256",
          "name": "tokenId",
          "type": "uint256"
        }
      ],
      "name": "getApproved",
      "outputs": [
        {
          "internalType": "address",
          "name": "",
          "type": "address"
        }
      ],
      "stateMutability": "view",
      "type": "function",
      "constant": true
    },
    {
      "inputs": [
        {
          "internalType": "address",
          "name": "owner",
          "type": "address"
        },
        {
          "internalType": "address",
          "name": "operator",
          "type": "address"
        }
      ],
      "name": "isApprovedForAll",
      "outputs": [
        {
          "internalType": "bool",
          "name": "",
          "type": "bool"
        }
      ],
      "stateMutability": "view",
      "type": "function",
      "constant": true
    },
    {
      "inputs": [],
      "name": "name",
      "outputs": [
        {
          "internalType": "string",
          "name": "",
          "type": "string"
        }
      ],
      "stateMutability": "view",
      "type": "function",
      "constant": true
    },
    {
      "inputs": [
        {
          "internalType": "uint256",
          "name": "tokenId",
          "type": "uint256"
        }
      ],
      "name": "ownerOf",
      "outputs": [
        {
          "internalType": "address",
          "name": "",
          "type": "address"
        }
      ],
      "stateMutability": "view",
      "type": "function",
      "constant": true
    },
    {
      "inputs": [
        {
          "internalType": "address",
          "name": "from",
          "type": "address"
        },
        {
          "internalType": "address",
          "name": "to",
          "type": "address"
        },
        {
          "internalType": "uint256",
          "name": "tokenId",
          "type": "uint256"
        }
      ],
      "name": "safeTransferFrom",
      "outputs": [],
      "stateMutability": "nonpayable",
      "type": "function"
    },
    {
      "inputs": [
        {
          "internalType": "address",
          "name": "from",
          "type": "address"
        },
        {
          "internalType": "address",
          "name": "to",
          "type": "address"
        },
        {
          "internalType": "uint256",
          "name": "tokenId",
          "type": "uint256"
        },
        {
          "internalType": "bytes",
          "name": "_data",
          "type": "bytes"
        }
      ],
      "name": "safeTransferFrom",
      "outputs": [],
      "stateMutability": "nonpayable",
      "type": "function"
    },
    {
      "inputs": [
        {
          "internalType": "address",
          "name": "operator",
          "type": "address"
        },
        {
          "internalType": "bool",
          "name": "approved",
          "type": "bool"
        }
      ],
      "name": "setApprovalForAll",
      "outputs": [],
      "stateMutability": "nonpayable",
      "type": "function"
    },
    {
      "inputs": [
        {
          "internalType": "bytes4",
          "name": "interfaceId",
          "type": "bytes4"
        }
      ],
      "name": "supportsInterface",
      "outputs": [
        {
          "internalType": "bool",
          "name": "",
          "type": "bool"
        }
      ],
      "stateMutability": "view",
      "type": "function",
      "constant": true
    },
    {
      "inputs": [],
      "name": "symbol",
      "outputs": [
        {
          "internalType": "string",
          "name": "",
          "type": "string"
        }
      ],
      "stateMutability": "view",
      "type": "function",
      "constant": true
    },
    {
      "inputs": [
        {
          "internalType": "uint256",
          "name": "index",
          "type": "uint256"
        }
      ],
      "name": "tokenByIndex",
      "outputs": [
        {
          "internalType": "uint256",
          "name": "",
          "type": "uint256"
        }
      ],
      "stateMutability": "view",
      "type": "function",
      "constant": true
    },
    {
      "inputs": [
        {
          "internalType": "address",
          "name": "owner",
          "type": "address"
        },
        {
          "internalType": "uint256",
          "name": "index",
          "type": "uint256"
        }
      ],
      "name": "tokenOfOwnerByIndex",
      "outputs": [
        {
          "internalType": "uint256",
          "name": "",
          "type": "uint256"
        }
      ],
      "stateMutability": "view",
      "type": "function",
      "constant": true
    },
    {
      "inputs": [
        {
          "internalType": "uint256",
          "name": "tokenId",
          "type": "uint256"
        }
      ],
      "name": "tokenURI",
      "outputs": [
        {
          "internalType": "string",
          "name": "",
          "type": "string"
        }
      ],
      "stateMutability": "view",
      "type": "function",
      "constant": true
    },
    {
      "inputs": [],
      "name": "totalSupply",
      "outputs": [
        {
          "internalType": "uint256",
          "name": "",
          "type": "uint256"
        }
      ],
      "stateMutability": "view",
      "type": "function",
      "constant": true
    },
    {
      "inputs": [
        {
          "internalType": "address",
          "name": "from",
          "type": "address"
        },
        {
          "internalType": "address",
          "name": "to",
          "type": "address"
        },
        {
          "internalType": "uint256",
          "name": "tokenId",
          "type": "uint256"
        }
      ],
      "name": "transferFrom",
      "outputs": [],
      "stateMutability": "nonpayable",
      "type": "function"
    },
    {
      "inputs": [
        {
          "internalType": "string",
          "name": "projectName",
          "type": "string"
        },
        {
          "internalType": "uint256",
          "name": "stockCounts",
          "type": "uint256"
        },
        {
          "internalType": "uint256",
          "name": "initalPricePerStocks",
          "type": "uint256"
        },
        {
          "internalType": "string",
          "name": "onwerName",
          "type": "string"
        },
        {
          "internalType": "string",
          "name": "descriptions",
          "type": "string"
        }
      ],
      "name": "creatProject",
      "outputs": [],
      "stateMutability": "nonpayable",
      "type": "function"
    },
    {
      "inputs": [],
      "name": "getDeployedProjects",
      "outputs": [
        {
          "internalType": "address[]",
          "name": "",
          "type": "address[]"
        }
      ],
      "stateMutability": "view",
      "type": "function",
      "constant": true
    }
  ],
  "bytecode": "0x60806040526000600b553480156200001657600080fd5b50604080518082018252601681527f4d6f7374616661416e644d6f68616d6d616452657a61000000000000000000006020808301918252835180850190945260038452624d414d60e81b908401528151919291620000779160009162000096565b5080516200008d90600190602084019062000096565b50505062000178565b828054620000a4906200013c565b90600052602060002090601f016020900481019282620000c8576000855562000113565b82601f10620000e357805160ff191683800117855562000113565b8280016001018555821562000113579182015b8281111562000113578251825591602001919060010190620000f6565b506200012192915062000125565b5090565b5b8082111562000121576000815560010162000126565b600181811c908216806200015157607f821691505b6020821081036200017257634e487b7160e01b600052602260045260246000fd5b50919050565b6137ee80620001886000396000f3fe60806040523480156200001157600080fd5b5060043610620001455760003560e01c80636352211e11620000bb578063a22cb465116200007a578063a22cb46514620002c6578063b88d4fde14620002dd578063c87b56dd14620002f4578063d01f5a24146200030b578063e985e9c5146200032257600080fd5b80636352211e146200025e57806370a0823114620002755780637ac3886e146200028c57806395d89b4114620002a55780639ec6deaf14620002af57600080fd5b806323b872dd116200010857806323b872dd14620001eb5780632f745c59146200020257806342842e0e146200021957806342966c6814620002305780634f6ccce7146200024757600080fd5b806301ffc9a7146200014a57806306fdde031462000176578063081812fc146200018f578063095ea7b314620001bf57806318160ddd14620001d8575b600080fd5b620001616200015b366004620016d8565b62000361565b60405190151581526020015b60405180910390f35b620001806200038f565b6040516200016d919062001755565b620001a6620001a03660046200176a565b62000429565b6040516001600160a01b0390911681526020016200016d565b620001d6620001d0366004620017a1565b620004c4565b005b6008545b6040519081526020016200016d565b620001d6620001fc366004620017ce565b620005e4565b620001dc62000213366004620017a1565b6200061d565b620001d66200022a366004620017ce565b620006b7565b620001d6620002413660046200176a565b620006d4565b620001dc620002583660046200176a565b62000754565b620001a66200026f3660046200176a565b620007ed565b620001dc620002863660046200180f565b62000866565b62000296620008ef565b6040516200016d91906200182d565b6200018062000952565b620001a6620002c03660046200176a565b62000963565b620001d6620002d73660046200187c565b6200098e565b620001d6620002ee3660046200194f565b6200099f565b62000180620003053660046200176a565b620009de565b620001d66200031c366004620019f7565b62000acf565b620001616200033336600462001a9d565b6001600160a01b03918216600090815260056020908152604080832093909416825291909152205460ff1690565b60006001600160e01b0319821663780e9d6360e01b1480620003895750620003898262000ba0565b92915050565b606060008054620003a09062001ad5565b80601f0160208091040260200160405190810160405280929190818152602001828054620003ce9062001ad5565b80156200041f5780601f10620003f3576101008083540402835291602001916200041f565b820191906000526020600020905b8154815290600101906020018083116200040157829003601f168201915b5050505050905090565b6000818152600260205260408120546001600160a01b0316620004a85760405162461bcd60e51b815260206004820152602c60248201527f4552433732313a20617070726f76656420717565727920666f72206e6f6e657860448201526b34b9ba32b73a103a37b5b2b760a11b60648201526084015b60405180910390fd5b506000908152600460205260409020546001600160a01b031690565b6000620004d182620007ed565b9050806001600160a01b0316836001600160a01b031603620005405760405162461bcd60e51b815260206004820152602160248201527f4552433732313a20617070726f76616c20746f2063757272656e74206f776e656044820152603960f91b60648201526084016200049f565b336001600160a01b03821614806200055f57506200055f813362000333565b620005d35760405162461bcd60e51b815260206004820152603860248201527f4552433732313a20617070726f76652063616c6c6572206973206e6f74206f7760448201527f6e6572206e6f7220617070726f76656420666f7220616c6c000000000000000060648201526084016200049f565b620005df838362000bf3565b505050565b620005f1335b8262000c63565b620006105760405162461bcd60e51b81526004016200049f9062001b11565b620005df83838362000d62565b60006200062a8362000866565b82106200068e5760405162461bcd60e51b815260206004820152602b60248201527f455243373231456e756d657261626c653a206f776e657220696e646578206f7560448201526a74206f6620626f756e647360a81b60648201526084016200049f565b506001600160a01b03919091166000908152600660209081526040808320938352929052205490565b620005df838383604051806020016040528060008152506200099f565b620006df33620005ea565b620007465760405162461bcd60e51b815260206004820152603060248201527f4552433732314275726e61626c653a2063616c6c6572206973206e6f74206f7760448201526f1b995c881b9bdc88185c1c1c9bdd995960821b60648201526084016200049f565b620007518162000f17565b50565b60006200076060085490565b8210620007c55760405162461bcd60e51b815260206004820152602c60248201527f455243373231456e756d657261626c653a20676c6f62616c20696e646578206f60448201526b7574206f6620626f756e647360a01b60648201526084016200049f565b60088281548110620007db57620007db62001b62565b90600052602060002001549050919050565b6000818152600260205260408120546001600160a01b031680620003895760405162461bcd60e51b815260206004820152602960248201527f4552433732313a206f776e657220717565727920666f72206e6f6e657869737460448201526832b73a103a37b5b2b760b91b60648201526084016200049f565b60006001600160a01b038216620008d35760405162461bcd60e51b815260206004820152602a60248201527f4552433732313a2062616c616e636520717565727920666f7220746865207a65604482015269726f206164647265737360b01b60648201526084016200049f565b506001600160a01b031660009081526003602052604090205490565b6060600a8054806020026020016040519081016040528092919081815260200182805480156200041f57602002820191906000526020600020905b81546001600160a01b031681526001909101906020018083116200092a575050505050905090565b606060018054620003a09062001ad5565b600a81815481106200097457600080fd5b6000918252602090912001546001600160a01b0316905081565b6200099b33838362000fc6565b5050565b620009ab338362000c63565b620009ca5760405162461bcd60e51b81526004016200049f9062001b11565b620009d88484848462001096565b50505050565b6000818152600260205260409020546060906001600160a01b031662000a5f5760405162461bcd60e51b815260206004820152602f60248201527f4552433732314d657461646174613a2055524920717565727920666f72206e6f60448201526e3732bc34b9ba32b73a103a37b5b2b760891b60648201526084016200049f565b600062000a7760408051602081019091526000815290565b9050600081511162000a99576040518060200160405280600081525062000ac8565b8062000aa584620010d0565b60405160200162000ab892919062001b78565b6040516020818303038152906040525b9392505050565b600033600b54878787878762000ae462000952565b60405162000af290620016b3565b62000b0598979695949392919062001bab565b604051809103906000f08015801562000b22573d6000803e3d6000fd5b50600a80546001810182556000919091527fc65a7bb8d6351c1cf70c95a316cc6a92839c986682d98bc35f958f4883f9d2a80180546001600160a01b0319166001600160a01b038316179055600b5490915062000b81903390620011e9565b600b805490600062000b938362001c4c565b9190505550505050505050565b60006001600160e01b031982166380ac58cd60e01b148062000bd257506001600160e01b03198216635b5e139f60e01b145b806200038957506301ffc9a760e01b6001600160e01b031983161462000389565b600081815260046020526040902080546001600160a01b0319166001600160a01b038416908117909155819062000c2a82620007ed565b6001600160a01b03167f8c5be1e5ebec7d5bd14f71427d1e84f3dd0314c0f7b2291e5b200ac8c7c3b92560405160405180910390a45050565b6000818152600260205260408120546001600160a01b031662000cde5760405162461bcd60e51b815260206004820152602c60248201527f4552433732313a206f70657261746f7220717565727920666f72206e6f6e657860448201526b34b9ba32b73a103a37b5b2b760a11b60648201526084016200049f565b600062000ceb83620007ed565b9050806001600160a01b0316846001600160a01b0316148062000d3357506001600160a01b0380821660009081526005602090815260408083209388168352929052205460ff165b8062000d5a5750836001600160a01b031662000d4f8462000429565b6001600160a01b0316145b949350505050565b826001600160a01b031662000d7782620007ed565b6001600160a01b03161462000ddd5760405162461bcd60e51b815260206004820152602560248201527f4552433732313a207472616e736665722066726f6d20696e636f72726563742060448201526437bbb732b960d91b60648201526084016200049f565b6001600160a01b03821662000e415760405162461bcd60e51b8152602060048201526024808201527f4552433732313a207472616e7366657220746f20746865207a65726f206164646044820152637265737360e01b60648201526084016200049f565b62000e4e8383836200133f565b62000e5b60008262000bf3565b6001600160a01b038316600090815260036020526040812080546001929062000e8690849062001c68565b90915550506001600160a01b038216600090815260036020526040812080546001929062000eb690849062001c82565b909155505060008181526002602052604080822080546001600160a01b0319166001600160a01b0386811691821790925591518493918716917fddf252ad1be2c89b69c2b068fc378daa952ba7f163c4a11628f55a4df523b3ef91a4505050565b600062000f2482620007ed565b905062000f34816000846200133f565b62000f4160008362000bf3565b6001600160a01b038116600090815260036020526040812080546001929062000f6c90849062001c68565b909155505060008281526002602052604080822080546001600160a01b0319169055518391906001600160a01b038416907fddf252ad1be2c89b69c2b068fc378daa952ba7f163c4a11628f55a4df523b3ef908390a45050565b816001600160a01b0316836001600160a01b031603620010295760405162461bcd60e51b815260206004820152601960248201527f4552433732313a20617070726f766520746f2063616c6c65720000000000000060448201526064016200049f565b6001600160a01b03838116600081815260056020908152604080832094871680845294825291829020805460ff191686151590811790915591519182527f17307eab39ab6107e8899845ad3d59bd9653f200f220920489ca2b5937696c31910160405180910390a3505050565b620010a384848462000d62565b620010b18484848462001403565b620009d85760405162461bcd60e51b81526004016200049f9062001c9d565b606081600003620010f85750506040805180820190915260018152600360fc1b602082015290565b8160005b81156200112857806200110f8162001c4c565b9150620011209050600a8362001d05565b9150620010fc565b60008167ffffffffffffffff811115620011465762001146620018bc565b6040519080825280601f01601f19166020018201604052801562001171576020820181803683370190505b5090505b841562000d5a576200118960018362001c68565b915062001198600a8662001d1c565b620011a590603062001c82565b60f81b818381518110620011bd57620011bd62001b62565b60200101906001600160f81b031916908160001a905350620011e1600a8662001d05565b945062001175565b6001600160a01b038216620012415760405162461bcd60e51b815260206004820181905260248201527f4552433732313a206d696e7420746f20746865207a65726f206164647265737360448201526064016200049f565b6000818152600260205260409020546001600160a01b031615620012a85760405162461bcd60e51b815260206004820152601c60248201527f4552433732313a20746f6b656e20616c7265616479206d696e7465640000000060448201526064016200049f565b620012b6600083836200133f565b6001600160a01b0382166000908152600360205260408120805460019290620012e190849062001c82565b909155505060008181526002602052604080822080546001600160a01b0319166001600160a01b03861690811790915590518392907fddf252ad1be2c89b69c2b068fc378daa952ba7f163c4a11628f55a4df523b3ef908290a45050565b6001600160a01b0383166200139d576200139781600880546000838152600960205260408120829055600182018355919091527ff3f7a9fe364faab93b216da50a3214154f22a0a2b415b23a84c8169e8b636ee30155565b620013c3565b816001600160a01b0316836001600160a01b031614620013c357620013c3838262001511565b6001600160a01b038216620013dd57620005df81620015b3565b826001600160a01b0316826001600160a01b031614620005df57620005df82826200166d565b60006001600160a01b0384163b156200150657604051630a85bd0160e11b81526001600160a01b0385169063150b7a02906200144a90339089908890889060040162001d33565b6020604051808303816000875af192505050801562001488575060408051601f3d908101601f19168201909252620014859181019062001d72565b60015b620014eb573d808015620014b9576040519150601f19603f3d011682016040523d82523d6000602084013e620014be565b606091505b508051600003620014e35760405162461bcd60e51b81526004016200049f9062001c9d565b805181602001fd5b6001600160e01b031916630a85bd0160e11b14905062000d5a565b506001949350505050565b60006001620015208462000866565b6200152c919062001c68565b60008381526007602052604090205490915080821462001580576001600160a01b03841660009081526006602090815260408083208584528252808320548484528184208190558352600790915290208190555b5060009182526007602090815260408084208490556001600160a01b039094168352600681528383209183525290812055565b600854600090620015c79060019062001c68565b60008381526009602052604081205460088054939450909284908110620015f257620015f262001b62565b90600052602060002001549050806008838154811062001616576200161662001b62565b600091825260208083209091019290925582815260099091526040808220849055858252812055600880548062001651576200165162001d92565b6001900381819060005260206000200160009055905550505050565b60006200167a8362000866565b6001600160a01b039093166000908152600660209081526040808320868452825280832085905593825260079052919091209190915550565b611a108062001da983390190565b6001600160e01b0319811681146200075157600080fd5b600060208284031215620016eb57600080fd5b813562000ac881620016c1565b60005b8381101562001715578181015183820152602001620016fb565b83811115620009d85750506000910152565b6000815180845262001741816020860160208601620016f8565b601f01601f19169290920160200192915050565b60208152600062000ac8602083018462001727565b6000602082840312156200177d57600080fd5b5035919050565b80356001600160a01b03811681146200179c57600080fd5b919050565b60008060408385031215620017b557600080fd5b620017c08362001784565b946020939093013593505050565b600080600060608486031215620017e457600080fd5b620017ef8462001784565b9250620017ff6020850162001784565b9150604084013590509250925092565b6000602082840312156200182257600080fd5b62000ac88262001784565b6020808252825182820181905260009190848201906040850190845b81811015620018705783516001600160a01b03168352928401929184019160010162001849565b50909695505050505050565b600080604083850312156200189057600080fd5b6200189b8362001784565b915060208301358015158114620018b157600080fd5b809150509250929050565b634e487b7160e01b600052604160045260246000fd5b600067ffffffffffffffff80841115620018f057620018f0620018bc565b604051601f8501601f19908116603f011681019082821181831017156200191b576200191b620018bc565b816040528093508581528686860111156200193557600080fd5b858560208301376000602087830101525050509392505050565b600080600080608085870312156200196657600080fd5b620019718562001784565b9350620019816020860162001784565b925060408501359150606085013567ffffffffffffffff811115620019a557600080fd5b8501601f81018713620019b757600080fd5b620019c887823560208401620018d2565b91505092959194509250565b600082601f830112620019e657600080fd5b62000ac883833560208501620018d2565b600080600080600060a0868803121562001a1057600080fd5b853567ffffffffffffffff8082111562001a2957600080fd5b62001a3789838a01620019d4565b96506020880135955060408801359450606088013591508082111562001a5c57600080fd5b62001a6a89838a01620019d4565b9350608088013591508082111562001a8157600080fd5b5062001a9088828901620019d4565b9150509295509295909350565b6000806040838503121562001ab157600080fd5b62001abc8362001784565b915062001acc6020840162001784565b90509250929050565b600181811c9082168062001aea57607f821691505b60208210810362001b0b57634e487b7160e01b600052602260045260246000fd5b50919050565b60208082526031908201527f4552433732313a207472616e736665722063616c6c6572206973206e6f74206f6040820152701ddb995c881b9bdc88185c1c1c9bdd9959607a1b606082015260800190565b634e487b7160e01b600052603260045260246000fd5b6000835162001b8c818460208801620016f8565b83519083019062001ba2818360208801620016f8565b01949350505050565b6001600160a01b0389168152602081018890526101006040820181905260009062001bd98382018a62001727565b905087606084015286608084015282810360a084015262001bfb818762001727565b905082810360c084015262001c11818662001727565b905082810360e084015262001c27818562001727565b9b9a5050505050505050505050565b634e487b7160e01b600052601160045260246000fd5b60006001820162001c615762001c6162001c36565b5060010190565b60008282101562001c7d5762001c7d62001c36565b500390565b6000821982111562001c985762001c9862001c36565b500190565b60208082526032908201527f4552433732313a207472616e7366657220746f206e6f6e20455243373231526560408201527131b2b4bb32b91034b6b83632b6b2b73a32b960711b606082015260800190565b634e487b7160e01b600052601260045260246000fd5b60008262001d175762001d1762001cef565b500490565b60008262001d2e5762001d2e62001cef565b500690565b6001600160a01b038581168252841660208201526040810183905260806060820181905260009062001d689083018462001727565b9695505050505050565b60006020828403121562001d8557600080fd5b815162000ac881620016c1565b634e487b7160e01b600052603160045260246000fdfe60806040523480156200001157600080fd5b5060405162001a1038038062001a108339810160408190526200003491620003c2565b8551869082906200004d90600390602085019062000232565b5080516200006390600490602084019062000232565b5050506001600160a01b0388166000818152600e60209081526040909120805460ff19166001908117909155600f55600680546001600160a01b03191690921790915560078890558651620000bf916005919089019062000232565b50600b849055600c859055604080516060810182528481526020808201859052918101869052845190918291600891620000fe91839189019062000232565b50602082810151805162000119926001850192019062000232565b50604082015181600201559050506200013b89600c546200014a60201b60201c565b5050505050505050506200050f565b6001600160a01b038216620001a55760405162461bcd60e51b815260206004820152601f60248201527f45524332303a206d696e7420746f20746865207a65726f206164647265737300604482015260640160405180910390fd5b8060026000828254620001b99190620004ac565b90915550506001600160a01b03821660009081526020819052604081208054839290620001e8908490620004ac565b90915550506040518181526001600160a01b038316906000907fddf252ad1be2c89b69c2b068fc378daa952ba7f163c4a11628f55a4df523b3ef9060200160405180910390a35050565b8280546200024090620004d3565b90600052602060002090601f016020900481019282620002645760008555620002af565b82601f106200027f57805160ff1916838001178555620002af565b82800160010185558215620002af579182015b82811115620002af57825182559160200191906001019062000292565b50620002bd929150620002c1565b5090565b5b80821115620002bd5760008155600101620002c2565b80516001600160a01b0381168114620002f057600080fd5b919050565b634e487b7160e01b600052604160045260246000fd5b600082601f8301126200031d57600080fd5b81516001600160401b03808211156200033a576200033a620002f5565b604051601f8301601f19908116603f01168101908282118183101715620003655762000365620002f5565b816040528381526020925086838588010111156200038257600080fd5b600091505b83821015620003a6578582018301518183018401529082019062000387565b83821115620003b85760008385830101525b9695505050505050565b600080600080600080600080610100898b031215620003e057600080fd5b620003eb89620002d8565b60208a015160408b015191995097506001600160401b03808211156200041057600080fd5b6200041e8c838d016200030b565b975060608b0151965060808b0151955060a08b01519150808211156200044357600080fd5b620004518c838d016200030b565b945060c08b01519150808211156200046857600080fd5b620004768c838d016200030b565b935060e08b01519150808211156200048d57600080fd5b506200049c8b828c016200030b565b9150509295985092959890939650565b60008219821115620004ce57634e487b7160e01b600052601160045260246000fd5b500190565b600181811c90821680620004e857607f821691505b6020821081036200050957634e487b7160e01b600052602260045260246000fd5b50919050565b6114f1806200051f6000396000f3fe6080604052600436106101405760003560e01c80636b7cc44f116100b6578063a59ac6dd1161006f578063a59ac6dd146103db578063a9059cbb146103ee578063b67aa5fe1461040e578063dd62ed3e1461042e578063e09ace3d1461044e578063f146b3d01461046357600080fd5b80636b7cc44f1461030657806370a082311461032a5780638508da5c14610360578063886ca99f1461037657806395d89b41146103a6578063a457c2d7146103bb57600080fd5b806323b872dd1161010857806323b872dd146101f7578063313ce567146102175780633950935114610233578063481c6a75146102535780634c903a381461028b5780636a44482e146102e657600080fd5b806306fdde0314610145578063095ea7b31461017057806318160ddd146101a05780631d1c3d04146101bf57806323a713b7146101e1575b600080fd5b34801561015157600080fd5b5061015a61048e565b60405161016791906111fa565b60405180910390f35b34801561017c57600080fd5b5061019061018b366004611230565b610520565b6040519015158152602001610167565b3480156101ac57600080fd5b506002545b604051908152602001610167565b3480156101cb57600080fd5b506101df6101da36600461125a565b610538565b005b3480156101ed57600080fd5b506101b1600b5481565b34801561020357600080fd5b50610190610212366004611273565b6105fe565b34801561022357600080fd5b5060405160128152602001610167565b34801561023f57600080fd5b5061019061024e366004611230565b610622565b34801561025f57600080fd5b50600654610273906001600160a01b031681565b6040516001600160a01b039091168152602001610167565b34801561029757600080fd5b506102ab6102a636600461125a565b610644565b604080516001600160a01b0396871681526020810195909552921515928401929092529092166060820152901515608082015260a001610167565b3480156102f257600080fd5b506101df61030136600461125a565b610696565b34801561031257600080fd5b5061031b610883565b604051610167939291906112af565b34801561033657600080fd5b506101b16103453660046112e5565b6001600160a01b031660009081526020819052604090205490565b34801561036c57600080fd5b506101b1600c5481565b34801561038257600080fd5b506101906103913660046112e5565b600e6020526000908152604090205460ff1681565b3480156103b257600080fd5b5061015a6109a9565b3480156103c757600080fd5b506101906103d6366004611230565b6109b8565b6101df6103e9366004611300565b610a33565b3480156103fa57600080fd5b50610190610409366004611230565b610bde565b34801561041a57600080fd5b506101df61042936600461125a565b610bec565b34801561043a57600080fd5b506101b1610449366004611333565b610c01565b34801561045a57600080fd5b50600d546101b1565b34801561046f57600080fd5b50610478610c2c565b6040516101679a99989796959493929190611366565b60606003805461049d90611407565b80601f01602080910402602001604051908101604052809291908181526020018280546104c990611407565b80156105165780601f106104eb57610100808354040283529160200191610516565b820191906000526020600020905b8154815290600101906020018083116104f957829003601f168201915b5050505050905090565b60003361052e818585610e41565b5060019392505050565b600d818154811061054b5761054b611441565b600091825260209091206002600390920201015460ff16156105be5760405162461bcd60e51b815260206004820152602160248201527f74686973205265717565737420697320616c726561647920636f6d706c6574656044820152601960fa1b60648201526084015b60405180910390fd5b6001600d82815481106105d3576105d3611441565b906000526020600020906003020160020160156101000a81548160ff02191690831515021790555050565b60003361060c858285610f65565b610617858585610fdf565b506001949350505050565b60003361052e8185856106358383610c01565b61063f919061146d565b610e41565b600d818154811061065457600080fd5b60009182526020909120600390910201805460018201546002909201546001600160a01b03918216935060ff8082169261010083041691600160a81b90041685565b336000908152600e602052604090205460ff166107075760405162461bcd60e51b815260206004820152602960248201527f4f6e6c79205368617265486f6c646572732063616e206372656174652073616c60448201526819481c995c5d595cdd60ba1b60648201526084016105b5565b336000908152602081905260409020548111156107745760405162461bcd60e51b815260206004820152602560248201527f796f7520646f6e7420686176652074686973206d7563682073746f636b20746f6044820152642073616c6560d81b60648201526084016105b5565b6040805160a0810182523381526020810192835260009181018281526060820183815260808301848152600d80546001810182559552925160039094027fd7b6990105719101dabeb77144f2a3385c8033acd3af97e9423a695e81ad1eb5810180546001600160a01b039687166001600160a01b031990911617905594517fd7b6990105719101dabeb77144f2a3385c8033acd3af97e9423a695e81ad1eb686015590517fd7b6990105719101dabeb77144f2a3385c8033acd3af97e9423a695e81ad1eb79094018054915192511515600160a81b0260ff60a81b199390941661010002610100600160a81b0319951515959095166001600160a81b0319909216919091179390931716179055565b60088054819061089290611407565b80601f01602080910402602001604051908101604052809291908181526020018280546108be90611407565b801561090b5780601f106108e05761010080835404028352916020019161090b565b820191906000526020600020905b8154815290600101906020018083116108ee57829003601f168201915b50505050509080600101805461092090611407565b80601f016020809104026020016040519081016040528092919081815260200182805461094c90611407565b80156109995780601f1061096e57610100808354040283529160200191610999565b820191906000526020600020905b81548152906001019060200180831161097c57829003601f168201915b5050505050908060020154905083565b60606004805461049d90611407565b600033816109c68286610c01565b905083811015610a265760405162461bcd60e51b815260206004820152602560248201527f45524332303a2064656372656173656420616c6c6f77616e63652062656c6f77604482015264207a65726f60d81b60648201526084016105b5565b6106178286868403610e41565b600d8181548110610a4657610a46611441565b906000526020600020906003020160010154821115610abc5760405162461bcd60e51b815260206004820152602c60248201527f52657175657374656420616d6f756e7420657863656564732074686520616d6f60448201526b756e7420666f722073616c6560a01b60648201526084016105b5565b600b54610ac99083611485565b341015610b2f5760405162461bcd60e51b815260206004820152602e60248201527f416d6f756e74206f66206d6f6e6579206973206c657373207468616e2074686560448201526d1030b1ba3ab0b610383934b1b29760911b60648201526084016105b5565b610b3a8333846105fe565b5081600d8281548110610b4f57610b4f611441565b90600052602060002090600302016001016000828254610b6f91906114a4565b9091555050600d805482908110610b8857610b88611441565b906000526020600020906003020160010154600003610bd9576001600d8281548110610bb657610bb6611441565b60009182526020909120600390910201600201805460ff19169115159190911790555b505050565b60003361052e818585610fdf565b6000600d82815481106105d3576105d3611441565b6001600160a01b03918216600090815260016020908152604080832093909416825291909152205490565b606060008060008060608060006060806005600b54600c54600f54600660009054906101000a90046001600160a01b031660086001016008600001600860020154610c7561048e565b610c7d6109a9565b898054610c8990611407565b80601f0160208091040260200160405190810160405280929190818152602001828054610cb590611407565b8015610d025780601f10610cd757610100808354040283529160200191610d02565b820191906000526020600020905b815481529060010190602001808311610ce557829003601f168201915b50505050509950848054610d1590611407565b80601f0160208091040260200160405190810160405280929190818152602001828054610d4190611407565b8015610d8e5780601f10610d6357610100808354040283529160200191610d8e565b820191906000526020600020905b815481529060010190602001808311610d7157829003601f168201915b50505050509450838054610da190611407565b80601f0160208091040260200160405190810160405280929190818152602001828054610dcd90611407565b8015610e1a5780601f10610def57610100808354040283529160200191610e1a565b820191906000526020600020905b815481529060010190602001808311610dfd57829003601f168201915b50505050509350995099509950995099509950995099509950995090919293949596979899565b6001600160a01b038316610ea35760405162461bcd60e51b8152602060048201526024808201527f45524332303a20617070726f76652066726f6d20746865207a65726f206164646044820152637265737360e01b60648201526084016105b5565b6001600160a01b038216610f045760405162461bcd60e51b815260206004820152602260248201527f45524332303a20617070726f766520746f20746865207a65726f206164647265604482015261737360f01b60648201526084016105b5565b6001600160a01b0383811660008181526001602090815260408083209487168084529482529182902085905590518481527f8c5be1e5ebec7d5bd14f71427d1e84f3dd0314c0f7b2291e5b200ac8c7c3b925910160405180910390a3505050565b6000610f718484610c01565b90506000198114610fd95781811015610fcc5760405162461bcd60e51b815260206004820152601d60248201527f45524332303a20696e73756666696369656e7420616c6c6f77616e636500000060448201526064016105b5565b610fd98484848403610e41565b50505050565b6001600160a01b0383166110435760405162461bcd60e51b815260206004820152602560248201527f45524332303a207472616e736665722066726f6d20746865207a65726f206164604482015264647265737360d81b60648201526084016105b5565b6001600160a01b0382166110a55760405162461bcd60e51b815260206004820152602360248201527f45524332303a207472616e7366657220746f20746865207a65726f206164647260448201526265737360e81b60648201526084016105b5565b6001600160a01b0383166000908152602081905260409020548181101561111d5760405162461bcd60e51b815260206004820152602660248201527f45524332303a207472616e7366657220616d6f756e7420657863656564732062604482015265616c616e636560d01b60648201526084016105b5565b6001600160a01b0380851660009081526020819052604080822085850390559185168152908120805484929061115490849061146d565b92505081905550826001600160a01b0316846001600160a01b03167fddf252ad1be2c89b69c2b068fc378daa952ba7f163c4a11628f55a4df523b3ef846040516111a091815260200190565b60405180910390a3610fd9565b6000815180845260005b818110156111d3576020818501810151868301820152016111b7565b818111156111e5576000602083870101525b50601f01601f19169290920160200192915050565b60208152600061120d60208301846111ad565b9392505050565b80356001600160a01b038116811461122b57600080fd5b919050565b6000806040838503121561124357600080fd5b61124c83611214565b946020939093013593505050565b60006020828403121561126c57600080fd5b5035919050565b60008060006060848603121561128857600080fd5b61129184611214565b925061129f60208501611214565b9150604084013590509250925092565b6060815260006112c260608301866111ad565b82810360208401526112d481866111ad565b915050826040830152949350505050565b6000602082840312156112f757600080fd5b61120d82611214565b60008060006060848603121561131557600080fd5b61131e84611214565b95602085013595506040909401359392505050565b6000806040838503121561134657600080fd5b61134f83611214565b915061135d60208401611214565b90509250929050565b600061014080835261137a8184018e6111ad565b602084018d9052604084018c9052606084018b90526001600160a01b038a16608085015283810360a085015290506113b281896111ad565b905082810360c08401526113c681886111ad565b90508560e08401528281036101008401526113e181866111ad565b90508281036101208401526113f681856111ad565b9d9c50505050505050505050505050565b600181811c9082168061141b57607f821691505b60208210810361143b57634e487b7160e01b600052602260045260246000fd5b50919050565b634e487b7160e01b600052603260045260246000fd5b634e487b7160e01b600052601160045260246000fd5b6000821982111561148057611480611457565b500190565b600081600019048311821515161561149f5761149f611457565b500290565b6000828210156114b6576114b6611457565b50039056fea2646970667358221220654d07122e0d93f01b1d9048fecd4408114a640fde9b43ebbb5fda3d2348d6d864736f6c634300080e0033a26469706673582212207469bd824b2a9c65b66a75f2080a8950a29c7d686b22fd1acc2d7f02f9560c0264736f6c634300080e0033",
  "immutableReferences": {},
  "source": "// SPDX-License-Identifier: MIT\r\npragma solidity ^0.8.0;\r\n\r\nimport \"@openzeppelin/contracts/token/ERC721/extensions/ERC721Burnable.sol\";//  burnable has inhereted the ERC721Enumerable witch inhereted ERC721\r\n\r\nimport \"./Project.sol\";\r\n\r\ncontract ProjectFactory is ERC721Burnable {\r\n\r\n    address [] public deployedProjects;\r\n    uint private _projectIDs = 0;\r\n    \r\n\r\n    constructor() ERC721(\"MostafaAndMohammadReza\", \"MAM\") { }\r\n\r\n    function creatProject(string memory projectName, uint stockCounts, uint initalPricePerStocks, string memory onwerName, string memory descriptions) public {\r\n        address newProject = address(new Project(msg.sender, _projectIDs, projectName, stockCounts, initalPricePerStocks, onwerName, descriptions, symbol()));\r\n       \r\n\r\n        deployedProjects.push(newProject);\r\n        _mint(msg.sender, _projectIDs);\r\n         _projectIDs++;\r\n\r\n    }\r\n\r\n    function getDeployedProjects()public view returns(address [] memory) {\r\n        return deployedProjects;\r\n    }\r\n}",
  "sourcePath": "F:\\Code\\Project\\Crowd Coin\\ethereum\\contracts\\ProjectFactory.sol",
  "compiler": {
    "name": "solc",
    "version": "0.8.14+commit.80d49f37.Emscripten.clang"
  },
  "schemaVersion": "3.4.4",
  "updatedAt": "2022-05-27T15:09:18.835Z",
  "networkType": "ethereum",
  "devdoc": {
    "kind": "dev",
    "methods": {
      "approve(address,uint256)": {
        "details": "See {IERC721-approve}."
      },
      "balanceOf(address)": {
        "details": "See {IERC721-balanceOf}."
      },
      "burn(uint256)": {
        "details": "Burns `tokenId`. See {ERC721-_burn}. Requirements: - The caller must own `tokenId` or be an approved operator."
      },
      "getApproved(uint256)": {
        "details": "See {IERC721-getApproved}."
      },
      "isApprovedForAll(address,address)": {
        "details": "See {IERC721-isApprovedForAll}."
      },
      "name()": {
        "details": "See {IERC721Metadata-name}."
      },
      "ownerOf(uint256)": {
        "details": "See {IERC721-ownerOf}."
      },
      "safeTransferFrom(address,address,uint256)": {
        "details": "See {IERC721-safeTransferFrom}."
      },
      "safeTransferFrom(address,address,uint256,bytes)": {
        "details": "See {IERC721-safeTransferFrom}."
      },
      "setApprovalForAll(address,bool)": {
        "details": "See {IERC721-setApprovalForAll}."
      },
      "supportsInterface(bytes4)": {
        "details": "See {IERC165-supportsInterface}."
      },
      "symbol()": {
        "details": "See {IERC721Metadata-symbol}."
      },
      "tokenByIndex(uint256)": {
        "details": "See {IERC721Enumerable-tokenByIndex}."
      },
      "tokenOfOwnerByIndex(address,uint256)": {
        "details": "See {IERC721Enumerable-tokenOfOwnerByIndex}."
      },
      "tokenURI(uint256)": {
        "details": "See {IERC721Metadata-tokenURI}."
      },
      "totalSupply()": {
        "details": "See {IERC721Enumerable-totalSupply}."
      },
      "transferFrom(address,address,uint256)": {
        "details": "See {IERC721-transferFrom}."
      }
    },
    "version": 1
  },
  "userdoc": {
    "kind": "user",
    "methods": {},
    "version": 1
  }
}