{
  "contractName": "Project",
  "abi": [
    {
      "inputs": [
        {
          "internalType": "address",
          "name": "owner",
          "type": "address"
        },
        {
          "internalType": "uint256",
          "name": "pID",
          "type": "uint256"
        },
        {
          "internalType": "string",
          "name": "pName",
          "type": "string"
        },
        {
          "internalType": "uint256",
          "name": "stockCounts",
          "type": "uint256"
        },
        {
          "internalType": "uint256",
          "name": "initalPricePerStocks",
          "type": "uint256"
        },
        {
          "internalType": "string",
          "name": "onwerName",
          "type": "string"
        },
        {
          "internalType": "string",
          "name": "descriptions",
          "type": "string"
        },
        {
          "internalType": "string",
          "name": "_symbol",
          "type": "string"
        }
      ],
      "stateMutability": "nonpayable",
      "type": "constructor"
    },
    {
      "anonymous": false,
      "inputs": [
        {
          "indexed": true,
          "internalType": "address",
          "name": "owner",
          "type": "address"
        },
        {
          "indexed": true,
          "internalType": "address",
          "name": "spender",
          "type": "address"
        },
        {
          "indexed": false,
          "internalType": "uint256",
          "name": "value",
          "type": "uint256"
        }
      ],
      "name": "Approval",
      "type": "event"
    },
    {
      "anonymous": false,
      "inputs": [
        {
          "indexed": true,
          "internalType": "address",
          "name": "from",
          "type": "address"
        },
        {
          "indexed": true,
          "internalType": "address",
          "name": "to",
          "type": "address"
        },
        {
          "indexed": false,
          "internalType": "uint256",
          "name": "value",
          "type": "uint256"
        }
      ],
      "name": "Transfer",
      "type": "event"
    },
    {
      "inputs": [
        {
          "internalType": "address",
          "name": "owner",
          "type": "address"
        },
        {
          "internalType": "address",
          "name": "spender",
          "type": "address"
        }
      ],
      "name": "allowance",
      "outputs": [
        {
          "internalType": "uint256",
          "name": "",
          "type": "uint256"
        }
      ],
      "stateMutability": "view",
      "type": "function"
    },
    {
      "inputs": [
        {
          "internalType": "address",
          "name": "spender",
          "type": "address"
        },
        {
          "internalType": "uint256",
          "name": "amount",
          "type": "uint256"
        }
      ],
      "name": "approve",
      "outputs": [
        {
          "internalType": "bool",
          "name": "",
          "type": "bool"
        }
      ],
      "stateMutability": "nonpayable",
      "type": "function"
    },
    {
      "inputs": [
        {
          "internalType": "address",
          "name": "account",
          "type": "address"
        }
      ],
      "name": "balanceOf",
      "outputs": [
        {
          "internalType": "uint256",
          "name": "",
          "type": "uint256"
        }
      ],
      "stateMutability": "view",
      "type": "function"
    },
    {
      "inputs": [],
      "name": "decimals",
      "outputs": [
        {
          "internalType": "uint8",
          "name": "",
          "type": "uint8"
        }
      ],
      "stateMutability": "view",
      "type": "function"
    },
    {
      "inputs": [
        {
          "internalType": "address",
          "name": "spender",
          "type": "address"
        },
        {
          "internalType": "uint256",
          "name": "subtractedValue",
          "type": "uint256"
        }
      ],
      "name": "decreaseAllowance",
      "outputs": [
        {
          "internalType": "bool",
          "name": "",
          "type": "bool"
        }
      ],
      "stateMutability": "nonpayable",
      "type": "function"
    },
    {
      "inputs": [],
      "name": "detail",
      "outputs": [
        {
          "internalType": "string",
          "name": "owner",
          "type": "string"
        },
        {
          "internalType": "string",
          "name": "description",
          "type": "string"
        },
        {
          "internalType": "uint256",
          "name": "initalPricePerStock",
          "type": "uint256"
        }
      ],
      "stateMutability": "view",
      "type": "function"
    },
    {
      "inputs": [
        {
          "internalType": "address",
          "name": "spender",
          "type": "address"
        },
        {
          "internalType": "uint256",
          "name": "addedValue",
          "type": "uint256"
        }
      ],
      "name": "increaseAllowance",
      "outputs": [
        {
          "internalType": "bool",
          "name": "",
          "type": "bool"
        }
      ],
      "stateMutability": "nonpayable",
      "type": "function"
    },
    {
      "inputs": [],
      "name": "manager",
      "outputs": [
        {
          "internalType": "address",
          "name": "",
          "type": "address"
        }
      ],
      "stateMutability": "view",
      "type": "function"
    },
    {
      "inputs": [],
      "name": "name",
      "outputs": [
        {
          "internalType": "string",
          "name": "",
          "type": "string"
        }
      ],
      "stateMutability": "view",
      "type": "function"
    },
    {
      "inputs": [],
      "name": "pricePerStock",
      "outputs": [
        {
          "internalType": "uint256",
          "name": "",
          "type": "uint256"
        }
      ],
      "stateMutability": "view",
      "type": "function"
    },
    {
      "inputs": [
        {
          "internalType": "uint256",
          "name": "",
          "type": "uint256"
        }
      ],
      "name": "saleRequests",
      "outputs": [
        {
          "internalType": "address",
          "name": "seller",
          "type": "address"
        },
        {
          "internalType": "uint256",
          "name": "stockCount",
          "type": "uint256"
        },
        {
          "internalType": "bool",
          "name": "completed",
          "type": "bool"
        },
        {
          "internalType": "address",
          "name": "buyer",
          "type": "address"
        },
        {
          "internalType": "bool",
          "name": "canceled",
          "type": "bool"
        }
      ],
      "stateMutability": "view",
      "type": "function"
    },
    {
      "inputs": [
        {
          "internalType": "address",
          "name": "",
          "type": "address"
        }
      ],
      "name": "sharholders",
      "outputs": [
        {
          "internalType": "bool",
          "name": "",
          "type": "bool"
        }
      ],
      "stateMutability": "view",
      "type": "function"
    },
    {
      "inputs": [],
      "name": "stockCount",
      "outputs": [
        {
          "internalType": "uint256",
          "name": "",
          "type": "uint256"
        }
      ],
      "stateMutability": "view",
      "type": "function"
    },
    {
      "inputs": [],
      "name": "symbol",
      "outputs": [
        {
          "internalType": "string",
          "name": "",
          "type": "string"
        }
      ],
      "stateMutability": "view",
      "type": "function"
    },
    {
      "inputs": [],
      "name": "totalSupply",
      "outputs": [
        {
          "internalType": "uint256",
          "name": "",
          "type": "uint256"
        }
      ],
      "stateMutability": "view",
      "type": "function"
    },
    {
      "inputs": [
        {
          "internalType": "address",
          "name": "to",
          "type": "address"
        },
        {
          "internalType": "uint256",
          "name": "amount",
          "type": "uint256"
        }
      ],
      "name": "transfer",
      "outputs": [
        {
          "internalType": "bool",
          "name": "",
          "type": "bool"
        }
      ],
      "stateMutability": "nonpayable",
      "type": "function"
    },
    {
      "inputs": [
        {
          "internalType": "address",
          "name": "from",
          "type": "address"
        },
        {
          "internalType": "address",
          "name": "to",
          "type": "address"
        },
        {
          "internalType": "uint256",
          "name": "amount",
          "type": "uint256"
        }
      ],
      "name": "transferFrom",
      "outputs": [
        {
          "internalType": "bool",
          "name": "",
          "type": "bool"
        }
      ],
      "stateMutability": "nonpayable",
      "type": "function"
    },
    {
      "inputs": [
        {
          "internalType": "uint256",
          "name": "_stockCount",
          "type": "uint256"
        }
      ],
      "name": "createSaleRequest",
      "outputs": [],
      "stateMutability": "nonpayable",
      "type": "function"
    },
    {
      "inputs": [
        {
          "internalType": "address",
          "name": "from",
          "type": "address"
        },
        {
          "internalType": "uint256",
          "name": "amount",
          "type": "uint256"
        },
        {
          "internalType": "uint256",
          "name": "requestIndex",
          "type": "uint256"
        }
      ],
      "name": "buy",
      "outputs": [],
      "stateMutability": "payable",
      "type": "function"
    },
    {
      "inputs": [],
      "name": "getSaleRequestsCount",
      "outputs": [
        {
          "internalType": "uint256",
          "name": "",
          "type": "uint256"
        }
      ],
      "stateMutability": "view",
      "type": "function"
    },
    {
      "inputs": [
        {
          "internalType": "uint256",
          "name": "requestIndex",
          "type": "uint256"
        }
      ],
      "name": "cancelSaleRequest",
      "outputs": [],
      "stateMutability": "nonpayable",
      "type": "function"
    },
    {
      "inputs": [
        {
          "internalType": "uint256",
          "name": "requestIndex",
          "type": "uint256"
        }
      ],
      "name": "activeSaleRequest",
      "outputs": [],
      "stateMutability": "nonpayable",
      "type": "function"
    },
    {
      "inputs": [],
      "name": "getSummery",
      "outputs": [
        {
          "internalType": "string",
          "name": "",
          "type": "string"
        },
        {
          "internalType": "uint256",
          "name": "",
          "type": "uint256"
        },
        {
          "internalType": "uint256",
          "name": "",
          "type": "uint256"
        },
        {
          "internalType": "uint256",
          "name": "",
          "type": "uint256"
        },
        {
          "internalType": "address",
          "name": "",
          "type": "address"
        },
        {
          "internalType": "string",
          "name": "",
          "type": "string"
        },
        {
          "internalType": "string",
          "name": "",
          "type": "string"
        },
        {
          "internalType": "uint256",
          "name": "",
          "type": "uint256"
        },
        {
          "internalType": "string",
          "name": "",
          "type": "string"
        },
        {
          "internalType": "string",
          "name": "",
          "type": "string"
        }
      ],
      "stateMutability": "view",
      "type": "function"
    }
  ],
  "bytecode": "0x60806040523480156200001157600080fd5b5060405162001a1038038062001a108339810160408190526200003491620003c2565b8551869082906200004d90600390602085019062000232565b5080516200006390600490602084019062000232565b5050506001600160a01b0388166000818152600e60209081526040909120805460ff19166001908117909155600f55600680546001600160a01b03191690921790915560078890558651620000bf916005919089019062000232565b50600b849055600c859055604080516060810182528481526020808201859052918101869052845190918291600891620000fe91839189019062000232565b50602082810151805162000119926001850192019062000232565b50604082015181600201559050506200013b89600c546200014a60201b60201c565b5050505050505050506200050f565b6001600160a01b038216620001a55760405162461bcd60e51b815260206004820152601f60248201527f45524332303a206d696e7420746f20746865207a65726f206164647265737300604482015260640160405180910390fd5b8060026000828254620001b99190620004ac565b90915550506001600160a01b03821660009081526020819052604081208054839290620001e8908490620004ac565b90915550506040518181526001600160a01b038316906000907fddf252ad1be2c89b69c2b068fc378daa952ba7f163c4a11628f55a4df523b3ef9060200160405180910390a35050565b8280546200024090620004d3565b90600052602060002090601f016020900481019282620002645760008555620002af565b82601f106200027f57805160ff1916838001178555620002af565b82800160010185558215620002af579182015b82811115620002af57825182559160200191906001019062000292565b50620002bd929150620002c1565b5090565b5b80821115620002bd5760008155600101620002c2565b80516001600160a01b0381168114620002f057600080fd5b919050565b634e487b7160e01b600052604160045260246000fd5b600082601f8301126200031d57600080fd5b81516001600160401b03808211156200033a576200033a620002f5565b604051601f8301601f19908116603f01168101908282118183101715620003655762000365620002f5565b816040528381526020925086838588010111156200038257600080fd5b600091505b83821015620003a6578582018301518183018401529082019062000387565b83821115620003b85760008385830101525b9695505050505050565b600080600080600080600080610100898b031215620003e057600080fd5b620003eb89620002d8565b60208a015160408b015191995097506001600160401b03808211156200041057600080fd5b6200041e8c838d016200030b565b975060608b0151965060808b0151955060a08b01519150808211156200044357600080fd5b620004518c838d016200030b565b945060c08b01519150808211156200046857600080fd5b620004768c838d016200030b565b935060e08b01519150808211156200048d57600080fd5b506200049c8b828c016200030b565b9150509295985092959890939650565b60008219821115620004ce57634e487b7160e01b600052601160045260246000fd5b500190565b600181811c90821680620004e857607f821691505b6020821081036200050957634e487b7160e01b600052602260045260246000fd5b50919050565b6114f1806200051f6000396000f3fe6080604052600436106101405760003560e01c80636b7cc44f116100b6578063a59ac6dd1161006f578063a59ac6dd146103db578063a9059cbb146103ee578063b67aa5fe1461040e578063dd62ed3e1461042e578063e09ace3d1461044e578063f146b3d01461046357600080fd5b80636b7cc44f1461030657806370a082311461032a5780638508da5c14610360578063886ca99f1461037657806395d89b41146103a6578063a457c2d7146103bb57600080fd5b806323b872dd1161010857806323b872dd146101f7578063313ce567146102175780633950935114610233578063481c6a75146102535780634c903a381461028b5780636a44482e146102e657600080fd5b806306fdde0314610145578063095ea7b31461017057806318160ddd146101a05780631d1c3d04146101bf57806323a713b7146101e1575b600080fd5b34801561015157600080fd5b5061015a61048e565b60405161016791906111fa565b60405180910390f35b34801561017c57600080fd5b5061019061018b366004611230565b610520565b6040519015158152602001610167565b3480156101ac57600080fd5b506002545b604051908152602001610167565b3480156101cb57600080fd5b506101df6101da36600461125a565b610538565b005b3480156101ed57600080fd5b506101b1600b5481565b34801561020357600080fd5b50610190610212366004611273565b6105fe565b34801561022357600080fd5b5060405160128152602001610167565b34801561023f57600080fd5b5061019061024e366004611230565b610622565b34801561025f57600080fd5b50600654610273906001600160a01b031681565b6040516001600160a01b039091168152602001610167565b34801561029757600080fd5b506102ab6102a636600461125a565b610644565b604080516001600160a01b0396871681526020810195909552921515928401929092529092166060820152901515608082015260a001610167565b3480156102f257600080fd5b506101df61030136600461125a565b610696565b34801561031257600080fd5b5061031b610883565b604051610167939291906112af565b34801561033657600080fd5b506101b16103453660046112e5565b6001600160a01b031660009081526020819052604090205490565b34801561036c57600080fd5b506101b1600c5481565b34801561038257600080fd5b506101906103913660046112e5565b600e6020526000908152604090205460ff1681565b3480156103b257600080fd5b5061015a6109a9565b3480156103c757600080fd5b506101906103d6366004611230565b6109b8565b6101df6103e9366004611300565b610a33565b3480156103fa57600080fd5b50610190610409366004611230565b610bde565b34801561041a57600080fd5b506101df61042936600461125a565b610bec565b34801561043a57600080fd5b506101b1610449366004611333565b610c01565b34801561045a57600080fd5b50600d546101b1565b34801561046f57600080fd5b50610478610c2c565b6040516101679a99989796959493929190611366565b60606003805461049d90611407565b80601f01602080910402602001604051908101604052809291908181526020018280546104c990611407565b80156105165780601f106104eb57610100808354040283529160200191610516565b820191906000526020600020905b8154815290600101906020018083116104f957829003601f168201915b5050505050905090565b60003361052e818585610e41565b5060019392505050565b600d818154811061054b5761054b611441565b600091825260209091206002600390920201015460ff16156105be5760405162461bcd60e51b815260206004820152602160248201527f74686973205265717565737420697320616c726561647920636f6d706c6574656044820152601960fa1b60648201526084015b60405180910390fd5b6001600d82815481106105d3576105d3611441565b906000526020600020906003020160020160156101000a81548160ff02191690831515021790555050565b60003361060c858285610f65565b610617858585610fdf565b506001949350505050565b60003361052e8185856106358383610c01565b61063f919061146d565b610e41565b600d818154811061065457600080fd5b60009182526020909120600390910201805460018201546002909201546001600160a01b03918216935060ff8082169261010083041691600160a81b90041685565b336000908152600e602052604090205460ff166107075760405162461bcd60e51b815260206004820152602960248201527f4f6e6c79205368617265486f6c646572732063616e206372656174652073616c60448201526819481c995c5d595cdd60ba1b60648201526084016105b5565b336000908152602081905260409020548111156107745760405162461bcd60e51b815260206004820152602560248201527f796f7520646f6e7420686176652074686973206d7563682073746f636b20746f6044820152642073616c6560d81b60648201526084016105b5565b6040805160a0810182523381526020810192835260009181018281526060820183815260808301848152600d80546001810182559552925160039094027fd7b6990105719101dabeb77144f2a3385c8033acd3af97e9423a695e81ad1eb5810180546001600160a01b039687166001600160a01b031990911617905594517fd7b6990105719101dabeb77144f2a3385c8033acd3af97e9423a695e81ad1eb686015590517fd7b6990105719101dabeb77144f2a3385c8033acd3af97e9423a695e81ad1eb79094018054915192511515600160a81b0260ff60a81b199390941661010002610100600160a81b0319951515959095166001600160a81b0319909216919091179390931716179055565b60088054819061089290611407565b80601f01602080910402602001604051908101604052809291908181526020018280546108be90611407565b801561090b5780601f106108e05761010080835404028352916020019161090b565b820191906000526020600020905b8154815290600101906020018083116108ee57829003601f168201915b50505050509080600101805461092090611407565b80601f016020809104026020016040519081016040528092919081815260200182805461094c90611407565b80156109995780601f1061096e57610100808354040283529160200191610999565b820191906000526020600020905b81548152906001019060200180831161097c57829003601f168201915b5050505050908060020154905083565b60606004805461049d90611407565b600033816109c68286610c01565b905083811015610a265760405162461bcd60e51b815260206004820152602560248201527f45524332303a2064656372656173656420616c6c6f77616e63652062656c6f77604482015264207a65726f60d81b60648201526084016105b5565b6106178286868403610e41565b600d8181548110610a4657610a46611441565b906000526020600020906003020160010154821115610abc5760405162461bcd60e51b815260206004820152602c60248201527f52657175657374656420616d6f756e7420657863656564732074686520616d6f60448201526b756e7420666f722073616c6560a01b60648201526084016105b5565b600b54610ac99083611485565b341015610b2f5760405162461bcd60e51b815260206004820152602e60248201527f416d6f756e74206f66206d6f6e6579206973206c657373207468616e2074686560448201526d1030b1ba3ab0b610383934b1b29760911b60648201526084016105b5565b610b3a8333846105fe565b5081600d8281548110610b4f57610b4f611441565b90600052602060002090600302016001016000828254610b6f91906114a4565b9091555050600d805482908110610b8857610b88611441565b906000526020600020906003020160010154600003610bd9576001600d8281548110610bb657610bb6611441565b60009182526020909120600390910201600201805460ff19169115159190911790555b505050565b60003361052e818585610fdf565b6000600d82815481106105d3576105d3611441565b6001600160a01b03918216600090815260016020908152604080832093909416825291909152205490565b606060008060008060608060006060806005600b54600c54600f54600660009054906101000a90046001600160a01b031660086001016008600001600860020154610c7561048e565b610c7d6109a9565b898054610c8990611407565b80601f0160208091040260200160405190810160405280929190818152602001828054610cb590611407565b8015610d025780601f10610cd757610100808354040283529160200191610d02565b820191906000526020600020905b815481529060010190602001808311610ce557829003601f168201915b50505050509950848054610d1590611407565b80601f0160208091040260200160405190810160405280929190818152602001828054610d4190611407565b8015610d8e5780601f10610d6357610100808354040283529160200191610d8e565b820191906000526020600020905b815481529060010190602001808311610d7157829003601f168201915b50505050509450838054610da190611407565b80601f0160208091040260200160405190810160405280929190818152602001828054610dcd90611407565b8015610e1a5780601f10610def57610100808354040283529160200191610e1a565b820191906000526020600020905b815481529060010190602001808311610dfd57829003601f168201915b50505050509350995099509950995099509950995099509950995090919293949596979899565b6001600160a01b038316610ea35760405162461bcd60e51b8152602060048201526024808201527f45524332303a20617070726f76652066726f6d20746865207a65726f206164646044820152637265737360e01b60648201526084016105b5565b6001600160a01b038216610f045760405162461bcd60e51b815260206004820152602260248201527f45524332303a20617070726f766520746f20746865207a65726f206164647265604482015261737360f01b60648201526084016105b5565b6001600160a01b0383811660008181526001602090815260408083209487168084529482529182902085905590518481527f8c5be1e5ebec7d5bd14f71427d1e84f3dd0314c0f7b2291e5b200ac8c7c3b925910160405180910390a3505050565b6000610f718484610c01565b90506000198114610fd95781811015610fcc5760405162461bcd60e51b815260206004820152601d60248201527f45524332303a20696e73756666696369656e7420616c6c6f77616e636500000060448201526064016105b5565b610fd98484848403610e41565b50505050565b6001600160a01b0383166110435760405162461bcd60e51b815260206004820152602560248201527f45524332303a207472616e736665722066726f6d20746865207a65726f206164604482015264647265737360d81b60648201526084016105b5565b6001600160a01b0382166110a55760405162461bcd60e51b815260206004820152602360248201527f45524332303a207472616e7366657220746f20746865207a65726f206164647260448201526265737360e81b60648201526084016105b5565b6001600160a01b0383166000908152602081905260409020548181101561111d5760405162461bcd60e51b815260206004820152602660248201527f45524332303a207472616e7366657220616d6f756e7420657863656564732062604482015265616c616e636560d01b60648201526084016105b5565b6001600160a01b0380851660009081526020819052604080822085850390559185168152908120805484929061115490849061146d565b92505081905550826001600160a01b0316846001600160a01b03167fddf252ad1be2c89b69c2b068fc378daa952ba7f163c4a11628f55a4df523b3ef846040516111a091815260200190565b60405180910390a3610fd9565b6000815180845260005b818110156111d3576020818501810151868301820152016111b7565b818111156111e5576000602083870101525b50601f01601f19169290920160200192915050565b60208152600061120d60208301846111ad565b9392505050565b80356001600160a01b038116811461122b57600080fd5b919050565b6000806040838503121561124357600080fd5b61124c83611214565b946020939093013593505050565b60006020828403121561126c57600080fd5b5035919050565b60008060006060848603121561128857600080fd5b61129184611214565b925061129f60208501611214565b9150604084013590509250925092565b6060815260006112c260608301866111ad565b82810360208401526112d481866111ad565b915050826040830152949350505050565b6000602082840312156112f757600080fd5b61120d82611214565b60008060006060848603121561131557600080fd5b61131e84611214565b95602085013595506040909401359392505050565b6000806040838503121561134657600080fd5b61134f83611214565b915061135d60208401611214565b90509250929050565b600061014080835261137a8184018e6111ad565b602084018d9052604084018c9052606084018b90526001600160a01b038a16608085015283810360a085015290506113b281896111ad565b905082810360c08401526113c681886111ad565b90508560e08401528281036101008401526113e181866111ad565b90508281036101208401526113f681856111ad565b9d9c50505050505050505050505050565b600181811c9082168061141b57607f821691505b60208210810361143b57634e487b7160e01b600052602260045260246000fd5b50919050565b634e487b7160e01b600052603260045260246000fd5b634e487b7160e01b600052601160045260246000fd5b6000821982111561148057611480611457565b500190565b600081600019048311821515161561149f5761149f611457565b500290565b6000828210156114b6576114b6611457565b50039056fea2646970667358221220654d07122e0d93f01b1d9048fecd4408114a640fde9b43ebbb5fda3d2348d6d864736f6c634300080e0033",
  "immutableReferences": {},
  "source": "// SPDX-License-Identifier: MIT\r\npragma solidity ^0.8.0;\r\n\r\nimport \"@openzeppelin/contracts/token/ERC20/ERC20.sol\";\r\n\r\n\r\n\r\ncontract Project is ERC20 {\r\n\r\n    struct SaleRequest{\r\n        address seller;\r\n        uint256 stockCount;\r\n        bool completed;\r\n        // string createDate;\r\n        address buyer;\r\n        bool canceled;\r\n    }\r\n\r\n    struct Detail {\r\n        string owner;\r\n        string description;\r\n        uint initalPricePerStock;\r\n    }\r\n\r\n    string projectName;\r\n    address public manager;\r\n    uint private projectID;\r\n    Detail public detail;\r\n    uint public pricePerStock;\r\n    uint public stockCount;\r\n    SaleRequest [] public  saleRequests ;\r\n\r\n\r\n    mapping(address => bool ) public  sharholders;\r\n    uint private sharholdersCount;\r\n\r\n    constructor (address owner, uint pID, string memory pName, uint stockCounts, uint initalPricePerStocks, string memory onwerName, string memory descriptions, string memory _symbol) ERC20(pName, _symbol){\r\n        sharholders[owner]= true;\r\n        sharholdersCount = 1;\r\n        manager = owner;\r\n        projectID = pID;\r\n        projectName = pName;\r\n        pricePerStock = initalPricePerStocks;\r\n        stockCount = stockCounts;\r\n        Detail memory temp = Detail({\r\n            owner:onwerName,\r\n            description:descriptions,\r\n            initalPricePerStock: initalPricePerStocks\r\n        });\r\n        detail = temp;\r\n\r\n\r\n        _mint(owner, stockCount);\r\n\r\n    }\r\n\r\n    function createSaleRequest(uint256 _stockCount) public  {\r\n        require(sharholders[msg.sender]  , \"Only ShareHolders can create sale request\");\r\n        require(balanceOf(msg.sender )>= _stockCount, \"you dont have this much stock to sale\");\r\n        SaleRequest memory temp =  SaleRequest({\r\n            seller: msg.sender,\r\n            stockCount: _stockCount,\r\n            completed: false,\r\n            canceled: false,\r\n            // CreateDate: \r\n            buyer: address(0)\r\n\r\n        });\r\n        saleRequests.push(temp);\r\n    }\r\n\r\n    // modifier restrictedToShareholders (){\r\n    //     require(sharholders[msg.sender] != 0 , \"Only ShareHolders can create sale request\");\r\n    // _;\r\n    // }\r\n    //  for sending .001 share if needed \r\n    // function decimals() public view virtual override returns (uint8) {\r\n    //     return 3;\r\n    // }\r\n\r\n\r\n\r\n    function buy (address from, uint256 amount, uint256 requestIndex) public payable {\r\n        require(amount <= saleRequests[requestIndex].stockCount, \"Requested amount exceeds the amount for sale\");\r\n        require(msg.value >= amount*pricePerStock, \"Amount of money is less than the actual price.\" );\r\n        transferFrom(from, msg.sender, amount);\r\n        saleRequests[requestIndex].stockCount -= amount;\r\n\r\n\r\n        if(saleRequests[requestIndex].stockCount ==0 ){\r\n            saleRequests[requestIndex].completed = true;\r\n        }\r\n    }\r\n\r\n\r\n    function getSaleRequestsCount() public view returns(uint){\r\n        return saleRequests.length;\r\n    }\r\n\r\n    function cancelSaleRequest(uint256 requestIndex) public {\r\n        require(saleRequests[requestIndex].completed == false, \"this Request is already completed\");\r\n\r\n        saleRequests[requestIndex].canceled = true;\r\n    }\r\n\r\n    function activeSaleRequest(uint256 requestIndex) public {\r\n        saleRequests[requestIndex].canceled = false;\r\n    }\r\n\r\n    function getSummery() public view returns (string memory, uint, uint, uint, address, string memory, string memory, uint, string memory, string memory){\r\n\r\n        return(\r\n            projectName,\r\n            pricePerStock,\r\n            stockCount,\r\n            sharholdersCount,\r\n            manager,\r\n            detail.description,\r\n            detail.owner,\r\n            detail.initalPricePerStock,\r\n            name(),\r\n            symbol()\r\n\r\n        );\r\n\r\n    }\r\n\r\n\r\n\r\n}",
  "sourcePath": "F:\\Code\\Project\\Crowd Coin\\ethereum\\contracts\\Project.sol",
  "compiler": {
    "name": "solc",
    "version": "0.8.14+commit.80d49f37.Emscripten.clang"
  },
  "schemaVersion": "3.4.4",
  "updatedAt": "2022-05-27T15:08:11.187Z",
  "devdoc": {
    "kind": "dev",
    "methods": {
      "allowance(address,address)": {
        "details": "See {IERC20-allowance}."
      },
      "approve(address,uint256)": {
        "details": "See {IERC20-approve}. NOTE: If `amount` is the maximum `uint256`, the allowance is not updated on `transferFrom`. This is semantically equivalent to an infinite approval. Requirements: - `spender` cannot be the zero address."
      },
      "balanceOf(address)": {
        "details": "See {IERC20-balanceOf}."
      },
      "decimals()": {
        "details": "Returns the number of decimals used to get its user representation. For example, if `decimals` equals `2`, a balance of `505` tokens should be displayed to a user as `5.05` (`505 / 10 ** 2`). Tokens usually opt for a value of 18, imitating the relationship between Ether and Wei. This is the value {ERC20} uses, unless this function is overridden; NOTE: This information is only used for _display_ purposes: it in no way affects any of the arithmetic of the contract, including {IERC20-balanceOf} and {IERC20-transfer}."
      },
      "decreaseAllowance(address,uint256)": {
        "details": "Atomically decreases the allowance granted to `spender` by the caller. This is an alternative to {approve} that can be used as a mitigation for problems described in {IERC20-approve}. Emits an {Approval} event indicating the updated allowance. Requirements: - `spender` cannot be the zero address. - `spender` must have allowance for the caller of at least `subtractedValue`."
      },
      "increaseAllowance(address,uint256)": {
        "details": "Atomically increases the allowance granted to `spender` by the caller. This is an alternative to {approve} that can be used as a mitigation for problems described in {IERC20-approve}. Emits an {Approval} event indicating the updated allowance. Requirements: - `spender` cannot be the zero address."
      },
      "name()": {
        "details": "Returns the name of the token."
      },
      "symbol()": {
        "details": "Returns the symbol of the token, usually a shorter version of the name."
      },
      "totalSupply()": {
        "details": "See {IERC20-totalSupply}."
      },
      "transfer(address,uint256)": {
        "details": "See {IERC20-transfer}. Requirements: - `to` cannot be the zero address. - the caller must have a balance of at least `amount`."
      },
      "transferFrom(address,address,uint256)": {
        "details": "See {IERC20-transferFrom}. Emits an {Approval} event indicating the updated allowance. This is not required by the EIP. See the note at the beginning of {ERC20}. NOTE: Does not update the allowance if the current allowance is the maximum `uint256`. Requirements: - `from` and `to` cannot be the zero address. - `from` must have a balance of at least `amount`. - the caller must have allowance for ``from``'s tokens of at least `amount`."
      }
    },
    "version": 1
  },
  "userdoc": {
    "kind": "user",
    "methods": {},
    "version": 1
  }
}